:020000040800F2
:10000000180700204D020008B7130008ED12000881
:10001000B513000843040008591700080000000049
:10002000000000000000000000000000BB130008FA
:100030004504000800000000B9130008BD130008C3
:1000400067020008670200086702000867020008EC
:1000500067020008670200086702000867020008DC
:1000600067020008670200086702000867020008CC
:1000700067020008670200086702000867020008BC
:1000800067020008670200086702000867020008AC
:10009000670200086702000867020008670200089C
:1000A000670200086702000867020008670200088C
:1000B000670200086702000867020008670200087C
:1000C000670200086702000867020008670200086C
:1000D00067020008091700086702000867020008A5
:1000E000670200086702000867020008670200084C
:1000F000670200086702000867020008670200083C
:10010000670200086702000867020008670200082B
:10011000670200086702000867020008670200081B
:10012000670200086702000867020008670200080B
:1001300067020008670200086702000867020008FB
:1001400067020008670200086702000867020008EB
:1001500067020008670200086702000867020008DB
:1001600067020008670200086702000867020008CB
:10017000670200086702000867020008000000002C
:1001800067020008670200086702000867020008AB
:10019000670200086702000867020008670200089B
:1001A00000000000000000006702000800F002F8F4
:1001B00000F03CF80AA090E8000C82448344AAF1C5
:1001C0000107DA4501D100F031F8AFF2090EBAE8C3
:1001D0000F0013F0010F18BFFB1A43F0010318477B
:1001E0004816000068160000103A24BF78C878C18D
:1001F000FAD8520724BF30C830C144BF04680C602D
:10020000704700000023002400250026103A28BF74
:1002100078C1FBD8520728BF30C148BF0B60704778
:100220001FB501F0EFFA1FBD10B510BD00F0CFF8FB
:100230001146FFF7F5FF01F0D1FA00F0EDF803B435
:10024000FFF7F2FF03BC00F0F5F800000948804713
:1002500009480047FEE7FEE7FEE7FEE7FEE7FEE7A8
:10026000FEE7FEE7FEE7FEE704480549054A064BC0
:100270007047000055140008AD0100081801002067
:1002800018070020180300201803002053EA020C6E
:1002900000F069802DE9F04B4FF00006002B1FBFE6
:1002A000B3FA83F503FA05F424FA05F65E4012BFAB
:1002B0001643B2FA82F502FA05F4C5F120051EBF15
:1002C00022FA05FC44EA0C04203556EA044C4FEAB5
:1002D000144418BF641C4FF000084FF0000990420E
:1002E00071EB030C39D3002919BFB1FA81F701FA78
:1002F00007F6B0FA80F700FA07F6C7F120071EBF2D
:1003000020FA07FC46EA0C062037B6FBF4FCA7EB04
:100310000507103F07F01F0BCBF120060CFA0BFB73
:100320002CFA06F644BFB3460026202FA4BF5E4633
:100330004FF0000B5BEA060C08BF4FF0010B19EB06
:100340000B09ABFB027C48EB0608C01B06FB02CC8A
:100350000BFB03CC71EB0C01C1E70B460246414697
:100360004846BDE8F08B13B54FF000004FF0000198
:10037000AFF30080BDE81C4070474FF0000200B5AD
:10038000134694469646203922BFA0E80C50A0E8B8
:100390000C50B1F12001BFF4F7AF090728BFA0E866
:1003A0000C5048BF0CC05DF804EB890028BF40F832
:1003B000042B08BF704748BF20F8022B11F0804F74
:1003C00018BF00F8012B704770477047704775469B
:1003D00000F02CF8AE4605006946534620F00700B1
:1003E000854618B020B5FFF73FFFBDE820404FF02D
:1003F00000064FF000074FF000084FF0000B21F00F
:100400000701AC46ACE8C009ACE8C009ACE8C009DB
:10041000ACE8C0098D46704710B50446AFF30080C4
:100420002046BDE81040FFF70ABF000000487047B3
:10043000B400002001491820ABBEFEE726000200F0
:100440007047FEE7704772B6FEE72DE9F0410446BB
:10045000876D00F06FF9064694F8350000250228F4
:1004600006D08020606584F834500120BDE8F0811A
:100470002068016821F0160101602068416921F0BF
:1004800080014161206C08B9A06C20B1206801682E
:1004900021F0080101602068016821F0010101607C
:1004A0000CE000F047F9801B052807D92020606583
:1004B000032084F8350084F83450D7E720680068BA
:1004C000C007EED194F85C103F208840B86001204E
:1004D00084F8350084F834500020C7E790F83510D0
:1004E000022903D08021416501207047052180F851
:1004F00035100068016821F001010160002070479B
:100500002DE9F84FDFF8F8A10022012403254FF070
:100510000F090AF1040BAAF1040E00BF0B6804FADC
:1005200002F63340B34270D10F7907F00307012F71
:1005300001D0022F16D187684FEA420805FA08FC5D
:1005400027EA0C07D1F80CC00CFA08FC4CEA070C9F
:10055000C0F808C04768B7430E79C6F30016964046
:100560003E4346600E79F643B6070AD0C7684FEAA5
:10057000420C05FA0CF6B7438E6806FA0CF63E43B9
:10058000C6600E7906F00306022E10D1D60800EBE5
:100590008608D8F8206057074FEAD76C09FA0CF79D
:1005A000BE430F6907FA0CF73743C8F82070066896
:1005B0004FEA420C05FA0CF7BE430F7907F0030728
:1005C00007FA0CF7374307604E6816F4403F1CD01B
:1005D0004C4E376847F480473760366822F003078F
:1005E00006F480460096484E07EB060CDCF80868D7
:1005F00097073F0F09FA07F826EA0806DFF80C818B
:10060000404503D14FF0000841E072E0DFF800817F
:10061000404502D14FF0010839E0DFF8F88040454D
:1006200002D14FF0020832E0DFF8EC80404502D101
:100630004FF003082BE0DFF8E480404502D14FF093
:10064000040824E0DFF8D880404502D14FF00508C7
:100650001DE0DFF8D080404502D14FF0060816E0DB
:10066000DFF8C480404502D14FF007080FE0DFF803
:10067000BC80404502D14FF0080808E0DFF8B080A8
:10068000404502D14FF0090801E04FF00A0808FA8E
:1006900007F848EA0608CCF80888DAF800605746F8
:1006A000D1F804C09E435FEACC2C00D51E433E60C7
:1006B000DBF800605F46D1F804C09E435FEA8C2CF3
:1006C00000D51E433E60DEF800607746D1F804C0D6
:1006D0009E435FEA8C3C00D51E433E60084F083FB6
:1006E0003E68D1F804C09E435FEACC3C00D51E436F
:1006F0003E60521C102AFFF411AFBDE8F88F0000D5
:10070000083C0140443802400030014000000240F3
:100710000004024000080240000C024000100240A9
:100720000014024000180240001C02400020024059
:10073000002402400148806870470000000000204B
:1007400002488168027811448160704700000020EF
:100750000B4810B5016841F400710160016841F473
:1007600080610160016841F480710160032000F044
:100770006FF80F2000F006F800F024F8002010BDFC
:10078000003C024070B50D4D04464FF47A71287854
:10079000B1FBF0F00A490968B1FBF0F000F00CFB86
:1007A00048B9102C07D200222146501E00F030F824
:1007B00000206C6070BD012070BD000000000020B2
:1007C0000C0000200A4808B5016841F4804101602E
:1007D000006800F4804000900548001F016841F067
:1007E00080510160006800F08050009008BD00005A
:1007F00044380240002809DB00F01F02012191402B
:100800004009800000F1E020C0F8001170470000AE
:10081000F0B40E4B1B680C46C3F30223C3F107056B
:10082000042D00D90425191D072901D2002300E059
:10083000DB1E012606FA05F1491E214099409E4023
:10084000761E16403143F0BC00F087BF0CED00E08F
:10085000064900F0070208684FF6FF03184040EA17
:100860000220034A10430860704700000CED00E0CE
:100870000000FA052DE9F0470E46050065D0DFF8C7
:100880001481D8F80000F7B200F00F00B04207D290
:1008900088F80070D8F8000000F00F00B04254D182
:1008A00028683D4C810712D5400703D5206840F4E5
:1008B000E05020602878000703D5206840F46040AD
:1008C00020602068A96820F0F000084320602878A4
:1008D000C0072DD0304968680839012812D0022895
:1008E00013D0032811D00968890700292DDA21685F
:1008F00021F0030101432160FFF71CFF814641F213
:10090000883A0EE009688903EFE709688901ECE796
:10091000FFF710FFA0EB0901514502D90320BDE804
:10092000F0872068696800F00C00B0EB810FEFD110
:10093000D8F80010404601F00F01B14207D9077006
:10094000006800F00F00B04201D00120E7E72878EE
:10095000400705D52068E96820F4E050084320608E
:100960002878000706D52068296920F4604040EA0D
:10097000C100206000F038F82168084AC1F3031173
:10098000515CC8400649086006480068FFF7FAFE57
:100990000020C4E7003C0240083802400E1800085E
:1009A0000C00002004000020044805490068096884
:1009B000044AC1F38221515CC84070470C000020FA
:1009C000083802401E1800080448054900680968F4
:1009D000044AC1F34231515CC84070470C0000200A
:1009E000083802401E180008154810B5006810F0BD
:1009F0000C02144813D01449042A0FD0082A0ED12F
:100A00000F4C241F2268236802F03F025B0207D5C7
:100A10002068C0F38810A0FB010106E0084610BD65
:100A20002168C1F38811A1FB00010023FFF72EFC10
:100A30002168C1F30141491C4900B0FBF1F010BD30
:100A4000083802400024F400001BB7002DE9F84FDD
:100A500004006ED02078DFF84C93C007A9F104059C
:100A60004AD009F104000168C1F38101012908D0CD
:100A70000068C0F3810002280AD1D9F800004002C2
:100A800006D52868800337D560680028E1D033E0B8
:100A90006068B0F5803F10D0B0F5A02F286810D066
:100AA00020F480302860286820F480202860606866
:100AB000A8B1FFF73FFE06460DE0286840F48030FD
:100AC000F4E740F480202860F7E700BFFFF732FE2C
:100AD000801B642873D828688003F7D50CE0FFF7E3
:100AE00029FE064605E000BFFFF724FE801B6428B0
:100AF000F0D828688003F7D42078DFF8AC8280072C
:100B00004FF0000A3ED5A748001D016811F00C0FF8
:100B100008D00068C0F3810002280BD1D9F800008A
:100B2000400207D42868800716D5E068012800D164
:100B300012E033E1E068B8B10120C8F80000FFF727
:100B4000F9FD064605E000BFFFF7F4FD801B022813
:100B5000C0D828688007F7D52868216920F0F800F8
:100B600040EAC10028600DE0C8F800A0FFF7E2FDF0
:100B7000064604E0FFF7DEFD801B02281FD8286828
:100B80008007F7D42078000722D5864F874861690F
:100B9000703771B101210160FFF7CCFD064604E01A
:100BA000FFF7C8FD801B022809D838688007F7D5F1
:100BB0000EE0C0F800A0FFF7BDFD064605E082E0AC
:100BC000FFF7B8FD801B02287DD838688007F7D46E
:100BD0002078400768D5DFF8CCB100270BF13C0B3B
:100BE000DBF80000C0000BD4DBF8001041F08051AE
:100BF000CBF80010DBF80000012700F080500090D7
:100C00006B4E3068C00510D4306840F4807030609E
:100C1000FFF790FD009005E0FFF78CFD0099401A6A
:100C2000022850D83068C005F6D55E4EA0686C36F4
:100C300001280FD00528306810D020F00100306066
:100C4000306820F004003060A068B8B1FFF772FD92
:100C500000900FE0306840F00100F4E740F004003D
:100C60003060F7E7FFF766FD0099411A41F28830DE
:100C7000814266D830688007F4D50EE0FFF75AFD50
:100C8000009007E0FFF756FD0099411A41F28830C5
:100C9000814256D830688007F4D42FB1DBF80010B9
:100CA00021F08051CBF80010A069C8B33D49091D5F
:100CB0000968C1F3810102294AD00228504607D0B1
:100CC000C8F8600000E03CE0FFF734FD04463BE07C
:100CD0004746C8F86000FFF72DFD064605E000BF57
:100CE000FFF728FD801B02282BD828688001F7D445
:100CF000D4E907010843A16A2E4A490802EB0141E1
:100D0000626A41EA8211084394F82C1040EA0161BA
:100D1000C9F8001001203866FFF70CFD044606E014
:100D20003EE000BFFFF706FD001B022809D8286837
:100D30008001F7D534E000BFFFF7FCFC001B022860
:100D400002D90320BDE8F88F28688001F4D427E099
:100D50000128F7D0D9F80000E26900F4800191423F
:100D60001CD1226A00F03F01914217D147F6C071B1
:100D7000626A0140B1EB821F10D1A26A4FF0FF33CB
:100D800000F4403103EB5202B1EB024F06D194F86C
:100D90002C1000F07060B0EB016F01D00120D1E7A2
:100DA0000020CFE70438024000004742800E47424F
:100DB000007000400000FFFF10B5401EB0F1807FC2
:100DC00001D3012010BD4FF0E02460610F216017B6
:100DD00000F0C3FC0020A06107202061002010BDAE
:100DE00070477047F8B5016804460868CA684B69DF
:100DF00010F00F0F4FF0000559D003F0010602F478
:100E00009077374365D0C10705D0D10503D5216C54
:100E100041F001012164410705D5D90703D0216CB8
:100E200041F002012164810705D5D90703D0216C67
:100E300041F004012164010707D502F0200131438C
:100E400003D0216C41F008012164216C00293AD0C3
:100E5000800604D5900602D5204600F032FB2068BB
:100E60004069216CC0F38010090700D460B32046AC
:100E700000F000FB20684069400621D5206814304E
:100E800050E8001F21F0400140E80012002AF5D18F
:100E9000A06BA8B16C490165A06BFFF71FFB002890
:100EA00011D0A06B016D01B0BDE8F040084783068A
:100EB0000FD593060DD52046BDE8F84000F001BBE4
:100EC0002046FFF78EFFF8BD2046FFF78AFF256416
:100ED000F8BD266B2023012E79D1C60677D5D6061C
:100EE00075D50868486800904869400640D5A16BF0
:100EF000086840680004000CEAD0A28D8242E7D95D
:100F0000E085C869B0F5807F2DD020680C3050E8AE
:100F1000001F21F4807140E80012002AF5D12068FA
:100F2000143050E8001F21F0010140E80012002AAF
:100F3000F5D12068143050E8001F21F0400140E84E
:100F40000012002AF5D184F83E30256320680C3069
:100F500050E8001F21F0100140E80012002AF5D1EE
:100F6000A06BFFF772FAA08DE18D401A81B229E0E3
:100F7000A08DE18D401A81B2E08D0028A8D0002913
:100F8000A6D020680C3050E8002F22F4907240E880
:100F90000026002EF5D12068143050E8002F22F0F2
:100FA000010240E80026002EF5D184F83E3025638A
:100FB00020680C3050E8002F22F0100240E8002397
:100FC000002BF5D12046FFF70BFFF8BDFFE7050624
:100FD0002BD5150629D594F83D002128F5D1A06818
:100FE000B0F5805F01D12069B0B1206A411C216257
:100FF000216800784860E08C401E0004000CE0840A
:10100000E3D12068C16821F08001C1602068C16817
:1010100041F04001C160D8E7206A0088C0F30800B1
:101020004860206A801C2062E5E74006CDD5500666
:10103000CBD5CA68204622F04002CA6084F83D3011
:1010400000F053F9C1E700006514000870B5040012
:1010500004D094F83D00002510B106E0012070BDD9
:1010600084F83C50204600F023F8242084F83D000A
:101070002068C16821F40051C160204600F082FA66
:101080002068016921F4904101612068416921F0E3
:101090002A0141612068C16841F40051C1602564A2
:1010A000202084F83D0084F83E00002070BD000040
:1010B00030B587B0044614216846FFF75EF9284D25
:1010C00022680021274802230324AA421ED1254A70
:1010D0001032156845F080451560126802F08042B4
:1010E0000592026842F0100202600068CDE9021425
:1010F00000F010000590E001CDE900030820049005
:1011000069461948FFF7FCF907B030BD174DAA42F0
:10111000FAD1144A1432156845F0100515601268AA
:1011200002F010020592026842F0020202600068BA
:10113000CDE9021400F002000590C020CDE90003C3
:101140000720049069460A48FFF7DAF900221146A1
:101150002520FFF75DFB2520FFF74CFBD4E70000BF
:10116000007800403038024000100240001001407A
:10117000000402402DE9F84F044690F83E009A46DC
:1011800016460D46202853D1FDB1F6B194F83C0027
:1011900001284DD0012084F83C000027276422203C
:1011A00084F83E002763FFF7C5FAA6858146E685E9
:1011B000A0684FF48058404501D1206940B12E46C7
:1011C0005FF0000584F83C7027E00120BDE8F88F4F
:1011D0000026F7E74B46002220212046CDF800A04C
:1011E00000F056FA08B10320F0E726B1A0684045A8
:1011F0001BD038B108E020684068C0F3080025F82B
:10120000020B07E0206980B12068406800F07F0091
:1012100006F8010BE08D401EE085E08D0028D9D155
:10122000202084F83E000020D0E720684068EFE7E7
:101230000220CBE7704700002DE9F843044690F800
:101240003D001F4616460D4620284CD1C5B1BEB103
:1012500094F83C00012846D0012084F83C004FF06F
:101260000008C4F84080212084F83D00FFF762FAAE
:10127000A6848146E684A068B0F5805F03D004E0D0
:101280000120BDE8F883206928B12E465FF00005F3
:1012900084F83C800EE00026FAE78021204600F02A
:1012A000F7F9A0B9AEB116F8010B21684860E08CDF
:1012B000401EE084E08C4B464FF00002009700286F
:1012C000EBD14FF04001204600F0E2F930B10320AD
:1012D000D7E735F8020BC0F30800E6E7202084F8D2
:1012E0003D000020CDE70220CBE77047FEE700007D
:1012F000114808B5016841F001010160016801F081
:1013000001010091016841F002010160016801F0F2
:1013100002010091016841F080010160016801F063
:1013200080010091016841F010010160006800F047
:101330001000009008BD0000303802400C4810B585
:101340000A4901604FF4E1314160002181600C22C3
:10135000C160C0E904128161C161FFF777FE002816
:1013600003D0BDE81040FFF76EB810BD0078004014
:101370002C0000200D4810B50B4901600C4941605C
:1013800000214FF480628160C0E903120422C0E9A9
:101390000521C161FFF75AFE002803D0BDE81040C7
:1013A000FFF751B810BD0000001001407000002090
:1013B000A0860100FEE7FEE770477047FFF7C0B95F
:1013C00030B593B030216846FEF7D7FF14210CA842
:1013D000FEF7D3FF1D480025016841F080510160F0
:1013E000006800F0805011901948016841F44041B4
:1013F00001600068022400F4404011900120009038
:10140000000401908001CDE9064006200890A82044
:10141000CDE9090404200B906846FFF717FB08B1DB
:1014200072B6FEE70CA90F2081E831004FF4A050FE
:101430000F904FF48050109005210CA8FFF71AFA76
:10144000002801D072B6FEE713B030BD403802402C
:10145000007000400248016841F47001016070476B
:1014600088ED00E010B5806B0021C185C184FFF7D5
:10147000B8FC10BD01680C3151E8002F22F49072C5
:1014800041E80023002BF5D10168143151E8002F09
:1014900022F0010241E80023002BF5D1016B012964
:1014A00009D101680C3151E8002F22F0100241E807
:1014B0000023002BF5D1202180F83E10002101638C
:1014C000704708B590F83E10222901D0022008BDCF
:1014D00082684FF480539A4201D1016921B1816A37
:1014E0009A421BD04AB10AE00268816A5268C2F38C
:1014F00008020A80816A891C08E0026972B10268E8
:10150000526802F07F020A70816A491C8162C18DB3
:10151000491E0904090CC18503D019E0026852680C
:10152000F1E70168CA6822F02002CA600168CA684F
:1015300022F48072CA6001684A6922F001024A619D
:10154000202180F83E10016B012903D0FFF772FEC5
:10155000002008BD0021016301680C3151E8002F13
:1015600022F0100241E80023002BF5D101680A683F
:10157000D20602D50A6849680091818DFFF730FCD8
:10158000E6E7000070B5044600680169E26821F4EE
:101590004051114301612169A068E2690843616912
:1015A000114308432168CA6849F20C639A43024315
:1015B000CA6020684169A26921F440711143416108
:1015C00031492068884202D03049884202D1FFF771
:1015D000FBF901E0FFF7E8F9E2690023192164252E
:1015E0003226B2F5004F626828D0A0FB0101930FAC
:1015F0009200FEF74BFE0146B0FBF5F06FF01802CB
:10160000504301EB800006EB0010B0FBF5F000F05A
:10161000F002B1FBF5F002EB0012B1FBF5F06FF058
:101620001803584301EB800006EB0010B0FBF5F007
:1016300000F00F0021681044886070BDA0FB01011C
:1016400092185B41FEF722FE0146B0FBF5F0020165
:10165000B1FBF5F06FF01803584301EB800006EB87
:10166000C000B0FBF5F000F0F80002EB4002B1FB67
:10167000F5F0584301EB800006EBC000B0FBF5F03D
:1016800000F00700D6E70000001001400014014000
:101690002DE9F041984617460E460446069D27E080
:1016A000681C25D02DB1FFF745F8A0EB0800A84233
:1016B0001ED920680C3050E8001F21F4D07140E89A
:1016C0000012002AF5D12068143050E8001F21F0E4
:1016D000010140E80012002AF5D1202084F83D00E5
:1016E00084F83E00002084F83C000320BDE8F0812F
:1016F0002068006836EA000004D00020B842CFD04D
:101700000020F3E70120F9E710B5104C20680068CD
:10171000C043800615D4642312220D492046FFF7EA
:1017200029FD0B4800F02AF809484FF47A730A386B
:101730000122017A0748FFF77FFD21686FF0200042
:101740000860BDE810400148FFF74CBB7000002066
:101750001A0000202C000020FEE70907090E0028CF
:1017600004DB00F1E02080F80014704700F00F0067
:1017700000F1E02080F8141D70470000002829D0F7
:101780000178427841EA0221C1F30A0212490A8033
:1017900042788378D20842EA4312C2F30A024A80AE
:1017A0008278C378920942EA8302037942EA83226B
:1017B000C2F30A028A8002794379520842EAC312CC
:1017C000C2F30A02CA80427992090A724079C0F3D0
:1017D000011048727047000010000020FEF7B8FFAB
:1017E000FFF7EEFDFFF784FDFFF7A8FDFFF7C2FD51
:1017F00003480068C16841F02001C160FEE70000B5
:10180000700000204FF04070E1EE100A70470000B9
:1018100000000000000001020304060708090000A0
:101820000000010203040000481800080000002026
:1018300010000000E80100085818000810000020FF
:10184000080700000402000801000000100000006A
:08185000000000000024F40078
:04000005080001AD41
:00000001FF
